{
  "contractName": "PartyPort",
  "abi": [
    {
      "inputs": [
        {
          "internalType": "address",
          "name": "_router",
          "type": "address"
        }
      ],
      "stateMutability": "nonpayable",
      "type": "constructor"
    },
    {
      "anonymous": false,
      "inputs": [
        {
          "indexed": false,
          "internalType": "uint256",
          "name": "",
          "type": "uint256"
        },
        {
          "indexed": false,
          "internalType": "address",
          "name": "",
          "type": "address"
        }
      ],
      "name": "PartyStarted",
      "type": "event"
    },
    {
      "inputs": [
        {
          "internalType": "uint256",
          "name": "",
          "type": "uint256"
        }
      ],
      "name": "allParties",
      "outputs": [
        {
          "internalType": "address",
          "name": "",
          "type": "address"
        }
      ],
      "stateMutability": "view",
      "type": "function"
    },
    {
      "inputs": [
        {
          "internalType": "address",
          "name": "",
          "type": "address"
        }
      ],
      "name": "getOwnerByParty",
      "outputs": [
        {
          "internalType": "address",
          "name": "",
          "type": "address"
        }
      ],
      "stateMutability": "view",
      "type": "function"
    },
    {
      "inputs": [
        {
          "internalType": "address",
          "name": "",
          "type": "address"
        },
        {
          "internalType": "uint256",
          "name": "",
          "type": "uint256"
        }
      ],
      "name": "getPartiesByOwner",
      "outputs": [
        {
          "internalType": "address",
          "name": "",
          "type": "address"
        }
      ],
      "stateMutability": "view",
      "type": "function"
    },
    {
      "inputs": [],
      "name": "router",
      "outputs": [
        {
          "internalType": "address",
          "name": "",
          "type": "address"
        }
      ],
      "stateMutability": "view",
      "type": "function"
    },
    {
      "inputs": [],
      "name": "totalParties",
      "outputs": [
        {
          "internalType": "uint256",
          "name": "",
          "type": "uint256"
        }
      ],
      "stateMutability": "view",
      "type": "function"
    },
    {
      "inputs": [
        {
          "internalType": "address",
          "name": "owner",
          "type": "address"
        }
      ],
      "name": "ownedParties",
      "outputs": [
        {
          "internalType": "uint256",
          "name": "",
          "type": "uint256"
        }
      ],
      "stateMutability": "view",
      "type": "function"
    },
    {
      "inputs": [],
      "name": "getAllParties",
      "outputs": [
        {
          "internalType": "address[]",
          "name": "",
          "type": "address[]"
        }
      ],
      "stateMutability": "view",
      "type": "function"
    },
    {
      "inputs": [
        {
          "internalType": "address[]",
          "name": "tokens",
          "type": "address[]"
        }
      ],
      "name": "startParty",
      "outputs": [],
      "stateMutability": "nonpayable",
      "type": "function"
    },
    {
      "inputs": [
        {
          "internalType": "address",
          "name": "newCaptain",
          "type": "address"
        }
      ],
      "name": "transferCaptain",
      "outputs": [
        {
          "internalType": "bool",
          "name": "",
          "type": "bool"
        }
      ],
      "stateMutability": "nonpayable",
      "type": "function"
    }
  ],
  "bytecode": "0x60a06040523480156200001157600080fd5b5060405162005ef438038062005ef483398181016040528101906200003791906200008c565b8073ffffffffffffffffffffffffffffffffffffffff1660808173ffffffffffffffffffffffffffffffffffffffff1660601b815250505062000106565b6000815190506200008681620000ec565b92915050565b6000602082840312156200009f57600080fd5b6000620000af8482850162000075565b91505092915050565b6000620000c582620000cc565b9050919050565b600073ffffffffffffffffffffffffffffffffffffffff82169050919050565b620000f781620000b8565b81146200010357600080fd5b50565b60805160601c615dc86200012c6000396000818161094f0152610b760152615dc86000f3fe60806040523480156200001157600080fd5b5060043610620000a05760003560e01c8063317df0d7116200006f578063317df0d7146200016957806360d50596146200019f578063b867bfcc14620001d5578063d00c281214620001f7578063f887ea40146200021757620000a0565b806301d3be0514620000a5578063035773c814620000c75780630681070714620000fd578063143e36401462000133575b600080fd5b620000af62000239565b604051620000be91906200129a565b60405180910390f35b620000e56004803603810190620000df919062000de3565b62000246565b604051620000f491906200129a565b60405180910390f35b6200011b600480360381019062000115919062000de3565b62000291565b6040516200012a9190620011a6565b60405180910390f35b6200015160048036038101906200014b919062000e0f565b620002c4565b604051620001609190620011a6565b60405180910390f35b62000187600480360381019062000181919062000de3565b62000313565b6040516200019691906200125b565b60405180910390f35b620001bd6004803603810190620001b7919062000e99565b620007cf565b604051620001cc9190620011a6565b60405180910390f35b620001df6200080f565b604051620001ee919062001237565b60405180910390f35b6200021560048036038101906200020f919062000e50565b6200089f565b005b6200022162000b74565b604051620002309190620011a6565b60405180910390f35b6000600280549050905090565b60008060008373ffffffffffffffffffffffffffffffffffffffff1673ffffffffffffffffffffffffffffffffffffffff168152602001908152602001600020805490509050919050565b60016020528060005260406000206000915054906101000a900473ffffffffffffffffffffffffffffffffffffffff1681565b60006020528160005260406000208181548110620002e157600080fd5b906000526020600020016000915091509054906101000a900473ffffffffffffffffffffffffffffffffffffffff1681565b600080600160003373ffffffffffffffffffffffffffffffffffffffff1673ffffffffffffffffffffffffffffffffffffffff16815260200190815260200160002060009054906101000a900473ffffffffffffffffffffffffffffffffffffffff16905060008060003273ffffffffffffffffffffffffffffffffffffffff1673ffffffffffffffffffffffffffffffffffffffff1681526020019081526020016000208054806020026020016040519081016040528092919081815260200182805480156200043a57602002820191906000526020600020905b8160009054906101000a900473ffffffffffffffffffffffffffffffffffffffff1673ffffffffffffffffffffffffffffffffffffffff1681526020019060010190808311620003ef575b5050505050905060008151905060005b81811015620007c1578281815181106200048d577f4e487b7100000000000000000000000000000000000000000000000000000000600052603260045260246000fd5b602002602001015173ffffffffffffffffffffffffffffffffffffffff163373ffffffffffffffffffffffffffffffffffffffff161415620007ad5782600183620004d9919062001409565b8151811062000511577f4e487b7100000000000000000000000000000000000000000000000000000000600052603260045260246000fd5b60200260200101516000808673ffffffffffffffffffffffffffffffffffffffff1673ffffffffffffffffffffffffffffffffffffffff168152602001908152602001600020828154811062000590577f4e487b7100000000000000000000000000000000000000000000000000000000600052603260045260246000fd5b9060005260206000200160006101000a81548173ffffffffffffffffffffffffffffffffffffffff021916908373ffffffffffffffffffffffffffffffffffffffff1602179055506000808573ffffffffffffffffffffffffffffffffffffffff1673ffffffffffffffffffffffffffffffffffffffff1681526020019081526020016000208054806200064d577f4e487b7100000000000000000000000000000000000000000000000000000000600052603160045260246000fd5b6001900381819060005260206000200160006101000a81549073ffffffffffffffffffffffffffffffffffffffff021916905590556000808773ffffffffffffffffffffffffffffffffffffffff1673ffffffffffffffffffffffffffffffffffffffff168152602001908152602001600020339080600181540180825580915050600190039060005260206000200160009091909190916101000a81548173ffffffffffffffffffffffffffffffffffffffff021916908373ffffffffffffffffffffffffffffffffffffffff16021790555085600160003373ffffffffffffffffffffffffffffffffffffffff1673ffffffffffffffffffffffffffffffffffffffff16815260200190815260200160002060006101000a81548173ffffffffffffffffffffffffffffffffffffffff021916908373ffffffffffffffffffffffffffffffffffffffff1602179055506001945050505050620007ca565b80620007b990620014c4565b90506200044a565b50600093505050505b919050565b60028181548110620007e057600080fd5b906000526020600020016000915054906101000a900473ffffffffffffffffffffffffffffffffffffffff1681565b606060028054806020026020016040519081016040528092919081815260200182805480156200089557602002820191906000526020600020905b8160009054906101000a900473ffffffffffffffffffffffffffffffffffffffff1673ffffffffffffffffffffffffffffffffffffffff16815260200190600101908083116200084a575b5050505050905090565b60018282905011620008e8576040517f08c379a0000000000000000000000000000000000000000000000000000000008152600401620008df9062001278565b60405180910390fd5b600032620008fb60028054905062000b98565b6040516020016200090d91906200115a565b6040516020818303038152906040526200092c60028054905062000b98565b6040516020016200093e919062001180565b6040516020818303038152906040527f000000000000000000000000000000000000000000000000000000000000000086866040516200097e9062000d5a565b6200098f96959493929190620011c3565b604051809103906000f080158015620009ac573d6000803e3d6000fd5b5090506000803373ffffffffffffffffffffffffffffffffffffffff1673ffffffffffffffffffffffffffffffffffffffff168152602001908152602001600020819080600181540180825580915050600190039060005260206000200160009091909190916101000a81548173ffffffffffffffffffffffffffffffffffffffff021916908373ffffffffffffffffffffffffffffffffffffffff16021790555033600160008373ffffffffffffffffffffffffffffffffffffffff1673ffffffffffffffffffffffffffffffffffffffff16815260200190815260200160002060006101000a81548173ffffffffffffffffffffffffffffffffffffffff021916908373ffffffffffffffffffffffffffffffffffffffff1602179055506002819080600181540180825580915050600190039060005260206000200160009091909190916101000a81548173ffffffffffffffffffffffffffffffffffffffff021916908373ffffffffffffffffffffffffffffffffffffffff1602179055507fa0157fc41218a6cc1cbab7cf0703d5860bd41ee699b9a479e41ae80c10dc1d626002805490503360405162000b67929190620012b7565b60405180910390a1505050565b7f000000000000000000000000000000000000000000000000000000000000000081565b6060600082141562000be2576040518060400160405280600181526020017f3000000000000000000000000000000000000000000000000000000000000000815250905062000d55565b600082905060005b6000821462000c1a57808062000c0090620014c4565b915050600a8262000c129190620013d1565b915062000bea565b60008167ffffffffffffffff81111562000c5d577f4e487b7100000000000000000000000000000000000000000000000000000000600052604160045260246000fd5b6040519080825280601f01601f19166020018201604052801562000c905781602001600182028036833780820191505090505b5090505b6000851462000d4e5760018262000cac919062001409565b9150600a8562000cbd919062001512565b603062000ccb919062001374565b60f81b81838151811062000d08577f4e487b7100000000000000000000000000000000000000000000000000000000600052603260045260246000fd5b60200101907effffffffffffffffffffffffffffffffffffffffffffffffffffffffffffff1916908160001a905350600a8562000d469190620013d1565b945062000c94565b8093505050505b919050565b6147a580620015ee83390190565b60008135905062000d7981620015b9565b92915050565b60008083601f84011262000d9257600080fd5b8235905067ffffffffffffffff81111562000dac57600080fd5b60208301915083602082028301111562000dc557600080fd5b9250929050565b60008135905062000ddd81620015d3565b92915050565b60006020828403121562000df657600080fd5b600062000e068482850162000d68565b91505092915050565b6000806040838503121562000e2357600080fd5b600062000e338582860162000d68565b925050602062000e468582860162000dcc565b9150509250929050565b6000806020838503121562000e6457600080fd5b600083013567ffffffffffffffff81111562000e7f57600080fd5b62000e8d8582860162000d7f565b92509250509250929050565b60006020828403121562000eac57600080fd5b600062000ebc8482850162000dcc565b91505092915050565b600062000ed3838362000edf565b60208301905092915050565b62000eea8162001444565b82525050565b62000efb8162001444565b82525050565b600062000f0f83856200132e565b935062000f1c82620012e4565b8060005b8581101562000f5d5762000f3582846200135b565b62000f41888262000ec5565b975062000f4e8362001314565b92505060018101905062000f20565b5085925050509392505050565b600062000f7782620012fe565b62000f8381856200132e565b935062000f9083620012ee565b8060005b8381101562000fc757815162000fab888262000ec5565b975062000fb88362001321565b92505060018101905062000f94565b5085935050505092915050565b62000fdf8162001458565b82525050565b600062000ff28262001309565b62000ffe81856200133f565b9350620010108185602086016200148e565b6200101b81620015a8565b840191505092915050565b6000620010338262001309565b6200103f818562001350565b9350620010518185602086016200148e565b80840191505092915050565b60006200106c60148362001350565b91507f50697261746520506172747920546f6b656e20230000000000000000000000006000830152601482019050919050565b6000620010ae60038362001350565b91507f50505400000000000000000000000000000000000000000000000000000000006000830152600382019050919050565b6000620010f06021836200133f565b91507f4e656564206d6f7265207468616e206f6e6520746f6b656e20696e207061727460008301527f21000000000000000000000000000000000000000000000000000000000000006020830152604082019050919050565b620011548162001484565b82525050565b600062001167826200105d565b915062001175828462001026565b915081905092915050565b60006200118d826200109f565b91506200119b828462001026565b915081905092915050565b6000602082019050620011bd600083018462000ef0565b92915050565b600060a082019050620011da600083018962000ef0565b8181036020830152620011ee818862000fe5565b9050818103604083015262001204818762000fe5565b905062001215606083018662000ef0565b81810360808301526200122a81848662000f01565b9050979650505050505050565b6000602082019050818103600083015262001253818462000f6a565b905092915050565b600060208201905062001272600083018462000fd4565b92915050565b600060208201905081810360008301526200129381620010e1565b9050919050565b6000602082019050620012b1600083018462001149565b92915050565b6000604082019050620012ce600083018562001149565b620012dd602083018462000ef0565b9392505050565b6000819050919050565b6000819050602082019050919050565b600081519050919050565b600081519050919050565b6000602082019050919050565b6000602082019050919050565b600082825260208201905092915050565b600082825260208201905092915050565b600081905092915050565b60006200136c602084018462000d68565b905092915050565b6000620013818262001484565b91506200138e8362001484565b9250827fffffffffffffffffffffffffffffffffffffffffffffffffffffffffffffffff03821115620013c657620013c56200154a565b5b828201905092915050565b6000620013de8262001484565b9150620013eb8362001484565b925082620013fe57620013fd62001579565b5b828204905092915050565b6000620014168262001484565b9150620014238362001484565b9250828210156200143957620014386200154a565b5b828203905092915050565b6000620014518262001464565b9050919050565b60008115159050919050565b600073ffffffffffffffffffffffffffffffffffffffff82169050919050565b6000819050919050565b60005b83811015620014ae57808201518184015260208101905062001491565b83811115620014be576000848401525b50505050565b6000620014d18262001484565b91507fffffffffffffffffffffffffffffffffffffffffffffffffffffffffffffffff8214156200150757620015066200154a565b5b600182019050919050565b60006200151f8262001484565b91506200152c8362001484565b9250826200153f576200153e62001579565b5b828206905092915050565b7f4e487b7100000000000000000000000000000000000000000000000000000000600052601160045260246000fd5b7f4e487b7100000000000000000000000000000000000000000000000000000000600052601260045260246000fd5b6000601f19601f8301169050919050565b620015c48162001444565b8114620015d057600080fd5b50565b620015de8162001484565b8114620015ea57600080fd5b5056fe60c06040523480156200001157600080fd5b50604051620047a5380380620047a58339818101604052810190620000379190620006ab565b8383816003908051906020019062000051929190620004a4565b5080600490805190602001906200006a929190620004a4565b5050506200008d62000081620003d660201b60201c565b620003de60201b60201c565b33600660006101000a81548173ffffffffffffffffffffffffffffffffffffffff021916908373ffffffffffffffffffffffffffffffffffffffff1602179055508173ffffffffffffffffffffffffffffffffffffffff1660a08173ffffffffffffffffffffffffffffffffffffffff1660601b815250508173ffffffffffffffffffffffffffffffffffffffff1663c45a01556040518163ffffffff1660e01b815260040160206040518083038186803b1580156200014c57600080fd5b505afa15801562000161573d6000803e3d6000fd5b505050506040513d601f19601f820116820180604052508101906200018791906200067f565b73ffffffffffffffffffffffffffffffffffffffff1660808173ffffffffffffffffffffffffffffffffffffffff1660601b815250506000600980549050905060005b81811015620003b8576007600084838151811062000211577f4e487b7100000000000000000000000000000000000000000000000000000000600052603260045260246000fd5b602002602001015173ffffffffffffffffffffffffffffffffffffffff1673ffffffffffffffffffffffffffffffffffffffff16815260200190815260200160002060009054906101000a900460ff16620003a4576009838281518110620002a2577f4e487b7100000000000000000000000000000000000000000000000000000000600052603260045260246000fd5b60200260200101519080600181540180825580915050600190039060005260206000200160009091909190916101000a81548173ffffffffffffffffffffffffffffffffffffffff021916908373ffffffffffffffffffffffffffffffffffffffff1602179055506001600760008584815181106200034a577f4e487b7100000000000000000000000000000000000000000000000000000000600052603260045260246000fd5b602002602001015173ffffffffffffffffffffffffffffffffffffffff1673ffffffffffffffffffffffffffffffffffffffff16815260200190815260200160002060006101000a81548160ff0219169083151502179055505b80620003b090620008b8565b9050620001ca565b50620003ca86620003de60201b60201c565b505050505050620009ad565b600033905090565b6000600560009054906101000a900473ffffffffffffffffffffffffffffffffffffffff16905081600560006101000a81548173ffffffffffffffffffffffffffffffffffffffff021916908373ffffffffffffffffffffffffffffffffffffffff1602179055508173ffffffffffffffffffffffffffffffffffffffff168173ffffffffffffffffffffffffffffffffffffffff167f8be0079c531659141344cd1fd0a4f28419497f9722a3daafe3b4186f6b6457e060405160405180910390a35050565b828054620004b29062000882565b90600052602060002090601f016020900481019282620004d6576000855562000522565b82601f10620004f157805160ff191683800117855562000522565b8280016001018555821562000522579182015b828111156200052157825182559160200191906001019062000504565b5b50905062000531919062000535565b5090565b5b808211156200055057600081600090555060010162000536565b5090565b60006200056b6200056584620007ac565b62000778565b905080838252602082019050828560208602820111156200058b57600080fd5b60005b85811015620005bf5781620005a488826200060e565b8452602084019350602083019250506001810190506200058e565b5050509392505050565b6000620005e0620005da84620007db565b62000778565b905082815260208101848484011115620005f957600080fd5b620006068482856200084c565b509392505050565b6000815190506200061f8162000993565b92915050565b600082601f8301126200063757600080fd5b81516200064984826020860162000554565b91505092915050565b600082601f8301126200066457600080fd5b815162000676848260208601620005c9565b91505092915050565b6000602082840312156200069257600080fd5b6000620006a2848285016200060e565b91505092915050565b600080600080600060a08688031215620006c457600080fd5b6000620006d4888289016200060e565b955050602086015167ffffffffffffffff811115620006f257600080fd5b620007008882890162000652565b945050604086015167ffffffffffffffff8111156200071e57600080fd5b6200072c8882890162000652565b93505060606200073f888289016200060e565b925050608086015167ffffffffffffffff8111156200075d57600080fd5b6200076b8882890162000625565b9150509295509295909350565b6000604051905081810181811067ffffffffffffffff82111715620007a257620007a162000964565b5b8060405250919050565b600067ffffffffffffffff821115620007ca57620007c962000964565b5b602082029050602081019050919050565b600067ffffffffffffffff821115620007f957620007f862000964565b5b601f19601f8301169050602081019050919050565b60006200081b8262000822565b9050919050565b600073ffffffffffffffffffffffffffffffffffffffff82169050919050565b6000819050919050565b60005b838110156200086c5780820151818401526020810190506200084f565b838111156200087c576000848401525b50505050565b600060028204905060018216806200089b57607f821691505b60208210811415620008b257620008b162000935565b5b50919050565b6000620008c58262000842565b91507fffffffffffffffffffffffffffffffffffffffffffffffffffffffffffffffff821415620008fb57620008fa62000906565b5b600182019050919050565b7f4e487b7100000000000000000000000000000000000000000000000000000000600052601160045260246000fd5b7f4e487b7100000000000000000000000000000000000000000000000000000000600052602260045260246000fd5b7f4e487b7100000000000000000000000000000000000000000000000000000000600052604160045260246000fd5b6200099e816200080e565b8114620009aa57600080fd5b50565b60805160601c60a05160601c613d9b62000a0a6000396000818161155001528181611e4601528181611fe90152818161207b015281816122d6015281816126f7015261283e0152600081816112c301526123910152613d9b6000f3fe608060405234801561001057600080fd5b50600436106101585760003560e01c80635d09c3dc116100c3578063a9059cbb1161007c578063a9059cbb146103ef578063c45a01551461041f578063dd62ed3e1461043d578063f2fde38b1461046d578063f887ea4014610489578063f8ac93e8146104a757610158565b80635d09c3dc1461032d57806370a0823114610349578063715018a6146103795780638da5cb5b1461038357806395d89b41146103a1578063a457c2d7146103bf57610158565b80632e1a7d4d116101155780632e1a7d4d14610247578063313ce56714610263578063395093511461028157806347e7ef24146102b15780634f64b2be146102cd57806352a9039c146102fd57610158565b806306fdde031461015d578063095ea7b31461017b57806318160ddd146101ab57806323b872dd146101c957806326b3c68b146101f95780632893215514610217575b600080fd5b6101656104b1565b6040516101729190613636565b60405180910390f35b61019560048036038101906101909190612d5f565b610543565b6040516101a2919061361b565b60405180910390f35b6101b3610561565b6040516101c09190613858565b60405180910390f35b6101e360048036038101906101de9190612d10565b61056b565b6040516101f0919061361b565b60405180910390f35b610201610663565b60405161020e9190613577565b60405180910390f35b610231600480360381019061022c9190612c82565b610689565b60405161023e919061361b565b60405180910390f35b610261600480360381019061025c9190612e54565b6106a9565b005b61026b610a38565b6040516102789190613904565b60405180910390f35b61029b60048036038101906102969190612d5f565b610a41565b6040516102a8919061361b565b60405180910390f35b6102cb60048036038101906102c69190612d5f565b610aed565b005b6102e760048036038101906102e29190612e54565b610f49565b6040516102f49190613577565b60405180910390f35b61031760048036038101906103129190612c82565b610f88565b6040516103249190613858565b60405180910390f35b61034760048036038101906103429190612d10565b610fa0565b005b610363600480360381019061035e9190612c82565b61102c565b6040516103709190613858565b60405180910390f35b610381611074565b005b61038b6110fc565b6040516103989190613577565b60405180910390f35b6103a9611126565b6040516103b69190613636565b60405180910390f35b6103d960048036038101906103d49190612d5f565b6111b8565b6040516103e6919061361b565b60405180910390f35b61040960048036038101906104049190612d5f565b6112a3565b604051610416919061361b565b60405180910390f35b6104276112c1565b6040516104349190613577565b60405180910390f35b61045760048036038101906104529190612cd4565b6112e5565b6040516104649190613858565b60405180910390f35b61048760048036038101906104829190612c82565b61136c565b005b61049161154e565b60405161049e9190613577565b60405180910390f35b6104af611572565b005b6060600380546104c090613baa565b80601f01602080910402602001604051908101604052809291908181526020018280546104ec90613baa565b80156105395780601f1061050e57610100808354040283529160200191610539565b820191906000526020600020905b81548152906001019060200180831161051c57829003601f168201915b5050505050905090565b6000610557610550611730565b8484611738565b6001905092915050565b6000600254905090565b6000610578848484611903565b6000600160008673ffffffffffffffffffffffffffffffffffffffff1673ffffffffffffffffffffffffffffffffffffffff16815260200190815260200160002060006105c3611730565b73ffffffffffffffffffffffffffffffffffffffff1673ffffffffffffffffffffffffffffffffffffffff16815260200190815260200160002054905082811015610643576040517f08c379a000000000000000000000000000000000000000000000000000000000815260040161063a90613738565b60405180910390fd5b6106578561064f611730565b858403611738565b60019150509392505050565b600660009054906101000a900473ffffffffffffffffffffffffffffffffffffffff1681565b60076020528060005260406000206000915054906101000a900460ff1681565b3273ffffffffffffffffffffffffffffffffffffffff163373ffffffffffffffffffffffffffffffffffffffff1614610717576040517f08c379a000000000000000000000000000000000000000000000000000000000815260040161070e90613718565b60405180910390fd5b6000811161075a576040517f08c379a0000000000000000000000000000000000000000000000000000000008152600401610751906136d8565b60405180910390fd5b6000600980549050905060005b81811015610a2957600981815481106107a9577f4e487b7100000000000000000000000000000000000000000000000000000000600052603260045260246000fd5b9060005260206000200160009054906101000a900473ffffffffffffffffffffffffffffffffffffffff1673ffffffffffffffffffffffffffffffffffffffff1663a9059cbb33600860006009868154811061082e577f4e487b7100000000000000000000000000000000000000000000000000000000600052603260045260246000fd5b9060005260206000200160009054906101000a900473ffffffffffffffffffffffffffffffffffffffff1673ffffffffffffffffffffffffffffffffffffffff1673ffffffffffffffffffffffffffffffffffffffff1681526020019081526020016000205461089c610561565b87600987815481106108d7577f4e487b7100000000000000000000000000000000000000000000000000000000600052603260045260246000fd5b9060005260206000200160009054906101000a900473ffffffffffffffffffffffffffffffffffffffff1673ffffffffffffffffffffffffffffffffffffffff166370a08231306040518263ffffffff1660e01b815260040161093a9190613577565b60206040518083038186803b15801561095257600080fd5b505afa158015610966573d6000803e3d6000fd5b505050506040513d601f19601f8201168201806040525081019061098a9190612e7d565b6109949190613a58565b61099e9190613a27565b6109a89190613a58565b6040518363ffffffff1660e01b81526004016109c59291906135f2565b602060405180830381600087803b1580156109df57600080fd5b505af11580156109f3573d6000803e3d6000fd5b505050506040513d601f19601f82011682018060405250810190610a179190612ddc565b5080610a2290613bdc565b9050610767565b50610a343383611b84565b5050565b60006012905090565b6000610ae3610a4e611730565b848460016000610a5c611730565b73ffffffffffffffffffffffffffffffffffffffff1673ffffffffffffffffffffffffffffffffffffffff16815260200190815260200160002060008873ffffffffffffffffffffffffffffffffffffffff1673ffffffffffffffffffffffffffffffffffffffff16815260200190815260200160002054610ade91906139d1565b611738565b6001905092915050565b3273ffffffffffffffffffffffffffffffffffffffff163373ffffffffffffffffffffffffffffffffffffffff1614610b5b576040517f08c379a0000000000000000000000000000000000000000000000000000000008152600401610b5290613718565b60405180910390fd5b600760008373ffffffffffffffffffffffffffffffffffffffff1673ffffffffffffffffffffffffffffffffffffffff16815260200190815260200160002060009054906101000a900460ff16610be7576040517f08c379a0000000000000000000000000000000000000000000000000000000008152600401610bde906137f8565b60405180910390fd5b60008111610c2a576040517f08c379a0000000000000000000000000000000000000000000000000000000008152600401610c2190613778565b60405180910390fd5b60008273ffffffffffffffffffffffffffffffffffffffff166370a08231306040518263ffffffff1660e01b8152600401610c659190613577565b60206040518083038186803b158015610c7d57600080fd5b505afa158015610c91573d6000803e3d6000fd5b505050506040513d601f19601f82011682018060405250810190610cb59190612e7d565b90508273ffffffffffffffffffffffffffffffffffffffff166323b872dd3330856040518463ffffffff1660e01b8152600401610cf4939291906135bb565b602060405180830381600087803b158015610d0e57600080fd5b505af1158015610d22573d6000803e3d6000fd5b505050506040513d601f19601f82011682018060405250810190610d469190612ddc565b506000818473ffffffffffffffffffffffffffffffffffffffff166370a08231306040518263ffffffff1660e01b8152600401610d839190613577565b60206040518083038186803b158015610d9b57600080fd5b505afa158015610daf573d6000803e3d6000fd5b505050506040513d601f19601f82011682018060405250810190610dd39190612e7d565b610ddd9190613ab2565b9050600060098054905082610df29190613a27565b90506000600980549050905060005b81811015610f27578673ffffffffffffffffffffffffffffffffffffffff1660098281548110610e5a577f4e487b7100000000000000000000000000000000000000000000000000000000600052603260045260246000fd5b9060005260206000200160009054906101000a900473ffffffffffffffffffffffffffffffffffffffff1673ffffffffffffffffffffffffffffffffffffffff161415610ea657610f16565b610f158760098381548110610ee4577f4e487b7100000000000000000000000000000000000000000000000000000000600052603260045260246000fd5b9060005260206000200160009054906101000a900473ffffffffffffffffffffffffffffffffffffffff1685611d5b565b5b80610f2090613bdc565b9050610e01565b506000610f3487876122d1565b9050610f403382612929565b50505050505050565b60098181548110610f5957600080fd5b906000526020600020016000915054906101000a900473ffffffffffffffffffffffffffffffffffffffff1681565b60086020528060005260406000206000915090505481565b610fa8611730565b73ffffffffffffffffffffffffffffffffffffffff16610fc66110fc565b73ffffffffffffffffffffffffffffffffffffffff161461101c576040517f08c379a000000000000000000000000000000000000000000000000000000000815260040161101390613758565b60405180910390fd5b611027838383611d5b565b505050565b60008060008373ffffffffffffffffffffffffffffffffffffffff1673ffffffffffffffffffffffffffffffffffffffff168152602001908152602001600020549050919050565b61107c611730565b73ffffffffffffffffffffffffffffffffffffffff1661109a6110fc565b73ffffffffffffffffffffffffffffffffffffffff16146110f0576040517f08c379a00000000000000000000000000000000000000000000000000000000081526004016110e790613758565b60405180910390fd5b6110fa6000612a89565b565b6000600560009054906101000a900473ffffffffffffffffffffffffffffffffffffffff16905090565b60606004805461113590613baa565b80601f016020809104026020016040519081016040528092919081815260200182805461116190613baa565b80156111ae5780601f10611183576101008083540402835291602001916111ae565b820191906000526020600020905b81548152906001019060200180831161119157829003601f168201915b5050505050905090565b600080600160006111c7611730565b73ffffffffffffffffffffffffffffffffffffffff1673ffffffffffffffffffffffffffffffffffffffff16815260200190815260200160002060008573ffffffffffffffffffffffffffffffffffffffff1673ffffffffffffffffffffffffffffffffffffffff16815260200190815260200160002054905082811015611284576040517f08c379a000000000000000000000000000000000000000000000000000000000815260040161127b90613818565b60405180910390fd5b61129861128f611730565b85858403611738565b600191505092915050565b60006112b76112b0611730565b8484611903565b6001905092915050565b7f000000000000000000000000000000000000000000000000000000000000000081565b6000600160008473ffffffffffffffffffffffffffffffffffffffff1673ffffffffffffffffffffffffffffffffffffffff16815260200190815260200160002060008373ffffffffffffffffffffffffffffffffffffffff1673ffffffffffffffffffffffffffffffffffffffff16815260200190815260200160002054905092915050565b611374611730565b73ffffffffffffffffffffffffffffffffffffffff166113926110fc565b73ffffffffffffffffffffffffffffffffffffffff16146113e8576040517f08c379a00000000000000000000000000000000000000000000000000000000081526004016113df90613758565b60405180910390fd5b3273ffffffffffffffffffffffffffffffffffffffff163373ffffffffffffffffffffffffffffffffffffffff1614611456576040517f08c379a000000000000000000000000000000000000000000000000000000000815260040161144d90613718565b60405180910390fd5b600660009054906101000a900473ffffffffffffffffffffffffffffffffffffffff1673ffffffffffffffffffffffffffffffffffffffff1663317df0d7826040518263ffffffff1660e01b81526004016114b19190613577565b602060405180830381600087803b1580156114cb57600080fd5b505af11580156114df573d6000803e3d6000fd5b505050506040513d601f19601f820116820180604052508101906115039190612ddc565b611542576040517f08c379a0000000000000000000000000000000000000000000000000000000008152600401611539906136f8565b60405180910390fd5b61154b81612a89565b50565b7f000000000000000000000000000000000000000000000000000000000000000081565b6000600980549050905060005b8181101561172c57600981815481106115c1577f4e487b7100000000000000000000000000000000000000000000000000000000600052603260045260246000fd5b9060005260206000200160009054906101000a900473ffffffffffffffffffffffffffffffffffffffff1673ffffffffffffffffffffffffffffffffffffffff166370a08231306040518263ffffffff1660e01b81526004016116249190613577565b60206040518083038186803b15801561163c57600080fd5b505afa158015611650573d6000803e3d6000fd5b505050506040513d601f19601f820116820180604052508101906116749190612e7d565b60086000600984815481106116b2577f4e487b7100000000000000000000000000000000000000000000000000000000600052603260045260246000fd5b9060005260206000200160009054906101000a900473ffffffffffffffffffffffffffffffffffffffff1673ffffffffffffffffffffffffffffffffffffffff1673ffffffffffffffffffffffffffffffffffffffff168152602001908152602001600020819055508061172590613bdc565b905061157f565b5050565b600033905090565b600073ffffffffffffffffffffffffffffffffffffffff168373ffffffffffffffffffffffffffffffffffffffff1614156117a8576040517f08c379a000000000000000000000000000000000000000000000000000000000815260040161179f906137d8565b60405180910390fd5b600073ffffffffffffffffffffffffffffffffffffffff168273ffffffffffffffffffffffffffffffffffffffff161415611818576040517f08c379a000000000000000000000000000000000000000000000000000000000815260040161180f90613698565b60405180910390fd5b80600160008573ffffffffffffffffffffffffffffffffffffffff1673ffffffffffffffffffffffffffffffffffffffff16815260200190815260200160002060008473ffffffffffffffffffffffffffffffffffffffff1673ffffffffffffffffffffffffffffffffffffffff168152602001908152602001600020819055508173ffffffffffffffffffffffffffffffffffffffff168373ffffffffffffffffffffffffffffffffffffffff167f8c5be1e5ebec7d5bd14f71427d1e84f3dd0314c0f7b2291e5b200ac8c7c3b925836040516118f69190613858565b60405180910390a3505050565b600073ffffffffffffffffffffffffffffffffffffffff168373ffffffffffffffffffffffffffffffffffffffff161415611973576040517f08c379a000000000000000000000000000000000000000000000000000000000815260040161196a906137b8565b60405180910390fd5b600073ffffffffffffffffffffffffffffffffffffffff168273ffffffffffffffffffffffffffffffffffffffff1614156119e3576040517f08c379a00000000000000000000000000000000000000000000000000000000081526004016119da90613658565b60405180910390fd5b6119ee838383612b4f565b60008060008573ffffffffffffffffffffffffffffffffffffffff1673ffffffffffffffffffffffffffffffffffffffff16815260200190815260200160002054905081811015611a74576040517f08c379a0000000000000000000000000000000000000000000000000000000008152600401611a6b906136b8565b60405180910390fd5b8181036000808673ffffffffffffffffffffffffffffffffffffffff1673ffffffffffffffffffffffffffffffffffffffff16815260200190815260200160002081905550816000808573ffffffffffffffffffffffffffffffffffffffff1673ffffffffffffffffffffffffffffffffffffffff1681526020019081526020016000206000828254611b0791906139d1565b925050819055508273ffffffffffffffffffffffffffffffffffffffff168473ffffffffffffffffffffffffffffffffffffffff167fddf252ad1be2c89b69c2b068fc378daa952ba7f163c4a11628f55a4df523b3ef84604051611b6b9190613858565b60405180910390a3611b7e848484612b54565b50505050565b600073ffffffffffffffffffffffffffffffffffffffff168273ffffffffffffffffffffffffffffffffffffffff161415611bf4576040517f08c379a0000000000000000000000000000000000000000000000000000000008152600401611beb90613798565b60405180910390fd5b611c0082600083612b4f565b60008060008473ffffffffffffffffffffffffffffffffffffffff1673ffffffffffffffffffffffffffffffffffffffff16815260200190815260200160002054905081811015611c86576040517f08c379a0000000000000000000000000000000000000000000000000000000008152600401611c7d90613678565b60405180910390fd5b8181036000808573ffffffffffffffffffffffffffffffffffffffff1673ffffffffffffffffffffffffffffffffffffffff168152602001908152602001600020819055508160026000828254611cdd9190613ab2565b92505081905550600073ffffffffffffffffffffffffffffffffffffffff168373ffffffffffffffffffffffffffffffffffffffff167fddf252ad1be2c89b69c2b068fc378daa952ba7f163c4a11628f55a4df523b3ef84604051611d429190613858565b60405180910390a3611d5683600084612b54565b505050565b6000600367ffffffffffffffff811115611d9e577f4e487b7100000000000000000000000000000000000000000000000000000000600052604160045260246000fd5b604051908082528060200260200182016040528015611dcc5781602001602082028036833780820191505090505b5090508381600081518110611e0a577f4e487b7100000000000000000000000000000000000000000000000000000000600052603260045260246000fd5b602002602001019073ffffffffffffffffffffffffffffffffffffffff16908173ffffffffffffffffffffffffffffffffffffffff16815250507f000000000000000000000000000000000000000000000000000000000000000073ffffffffffffffffffffffffffffffffffffffff1663ad5c46486040518163ffffffff1660e01b815260040160206040518083038186803b158015611eaa57600080fd5b505afa158015611ebe573d6000803e3d6000fd5b505050506040513d601f19601f82011682018060405250810190611ee29190612cab565b81600181518110611f1c577f4e487b7100000000000000000000000000000000000000000000000000000000600052603260045260246000fd5b602002602001019073ffffffffffffffffffffffffffffffffffffffff16908173ffffffffffffffffffffffffffffffffffffffff16815250508281600281518110611f91577f4e487b7100000000000000000000000000000000000000000000000000000000600052603260045260246000fd5b602002602001019073ffffffffffffffffffffffffffffffffffffffff16908173ffffffffffffffffffffffffffffffffffffffff16815250508373ffffffffffffffffffffffffffffffffffffffff1663095ea7b37f0000000000000000000000000000000000000000000000000000000000000000846040518363ffffffff1660e01b81526004016120269291906135f2565b602060405180830381600087803b15801561204057600080fd5b505af1158015612054573d6000803e3d6000fd5b505050506040513d601f19601f820116820180604052508101906120789190612ddc565b507f000000000000000000000000000000000000000000000000000000000000000073ffffffffffffffffffffffffffffffffffffffff166338ed17398360008430426040518663ffffffff1660e01b81526004016120db959493929190613873565b600060405180830381600087803b1580156120f557600080fd5b505af1158015612109573d6000803e3d6000fd5b505050506040513d6000823e3d601f19601f820116820180604052508101906121329190612d9b565b508373ffffffffffffffffffffffffffffffffffffffff166370a08231306040518263ffffffff1660e01b815260040161216c9190613577565b60206040518083038186803b15801561218457600080fd5b505afa158015612198573d6000803e3d6000fd5b505050506040513d601f19601f820116820180604052508101906121bc9190612e7d565b600860008673ffffffffffffffffffffffffffffffffffffffff1673ffffffffffffffffffffffffffffffffffffffff168152602001908152602001600020819055508273ffffffffffffffffffffffffffffffffffffffff166370a08231306040518263ffffffff1660e01b81526004016122389190613577565b60206040518083038186803b15801561225057600080fd5b505afa158015612264573d6000803e3d6000fd5b505050506040513d601f19601f820116820180604052508101906122889190612e7d565b600860008573ffffffffffffffffffffffffffffffffffffffff1673ffffffffffffffffffffffffffffffffffffffff1681526020019081526020016000208190555050505050565b6000807f000000000000000000000000000000000000000000000000000000000000000073ffffffffffffffffffffffffffffffffffffffff1663ad5c46486040518163ffffffff1660e01b815260040160206040518083038186803b15801561233a57600080fd5b505afa15801561234e573d6000803e3d6000fd5b505050506040513d601f19601f820116820180604052508101906123729190612cab565b9050600080600080600980549050905060005b8181101561290f5760007f000000000000000000000000000000000000000000000000000000000000000073ffffffffffffffffffffffffffffffffffffffff1663e6a4390560098481548110612405577f4e487b7100000000000000000000000000000000000000000000000000000000600052603260045260246000fd5b9060005260206000200160009054906101000a900473ffffffffffffffffffffffffffffffffffffffff16896040518363ffffffff1660e01b815260040161244e929190613592565b60206040518083038186803b15801561246657600080fd5b505afa15801561247a573d6000803e3d6000fd5b505050506040513d601f19601f8201168201806040525081019061249e9190612cab565b90506000808273ffffffffffffffffffffffffffffffffffffffff16630902f1ac6040518163ffffffff1660e01b815260040160606040518083038186803b1580156124e957600080fd5b505afa1580156124fd573d6000803e3d6000fd5b505050506040513d601f19601f820116820180604052508101906125219190612e05565b506dffffffffffffffffffffffffffff1691506dffffffffffffffffffffffffffff1691508873ffffffffffffffffffffffffffffffffffffffff168373ffffffffffffffffffffffffffffffffffffffff16630dfe16816040518163ffffffff1660e01b815260040160206040518083038186803b1580156125a357600080fd5b505afa1580156125b7573d6000803e3d6000fd5b505050506040513d601f19601f820116820180604052508101906125db9190612cab565b73ffffffffffffffffffffffffffffffffffffffff161415612604576000829050819250809150505b600060098581548110612640577f4e487b7100000000000000000000000000000000000000000000000000000000600052603260045260246000fd5b9060005260206000200160009054906101000a900473ffffffffffffffffffffffffffffffffffffffff1673ffffffffffffffffffffffffffffffffffffffff166370a08231306040518263ffffffff1660e01b81526004016126a39190613577565b60206040518083038186803b1580156126bb57600080fd5b505afa1580156126cf573d6000803e3d6000fd5b505050506040513d601f19601f820116820180604052508101906126f39190612e7d565b90507f000000000000000000000000000000000000000000000000000000000000000073ffffffffffffffffffffffffffffffffffffffff1663054d50d48285856040518463ffffffff1660e01b8152600401612752939291906138cd565b60206040518083038186803b15801561276a57600080fd5b505afa15801561277e573d6000803e3d6000fd5b505050506040513d601f19601f820116820180604052508101906127a29190612e7d565b97508c73ffffffffffffffffffffffffffffffffffffffff16600986815481106127f5577f4e487b7100000000000000000000000000000000000000000000000000000000600052603260045260246000fd5b9060005260206000200160009054906101000a900473ffffffffffffffffffffffffffffffffffffffff1673ffffffffffffffffffffffffffffffffffffffff1614156128ec577f000000000000000000000000000000000000000000000000000000000000000073ffffffffffffffffffffffffffffffffffffffff1663054d50d48d85856040518463ffffffff1660e01b8152600401612899939291906138cd565b60206040518083038186803b1580156128b157600080fd5b505afa1580156128c5573d6000803e3d6000fd5b505050506040513d601f19601f820116820180604052508101906128e99190612e7d565b96505b87896128f891906139d1565b9850505050508061290890613bdc565b9050612385565b50838261291c9190613a27565b9550505050505092915050565b600073ffffffffffffffffffffffffffffffffffffffff168273ffffffffffffffffffffffffffffffffffffffff161415612999576040517f08c379a000000000000000000000000000000000000000000000000000000000815260040161299090613838565b60405180910390fd5b6129a560008383612b4f565b80600260008282546129b791906139d1565b92505081905550806000808473ffffffffffffffffffffffffffffffffffffffff1673ffffffffffffffffffffffffffffffffffffffff1681526020019081526020016000206000828254612a0c91906139d1565b925050819055508173ffffffffffffffffffffffffffffffffffffffff16600073ffffffffffffffffffffffffffffffffffffffff167fddf252ad1be2c89b69c2b068fc378daa952ba7f163c4a11628f55a4df523b3ef83604051612a719190613858565b60405180910390a3612a8560008383612b54565b5050565b6000600560009054906101000a900473ffffffffffffffffffffffffffffffffffffffff16905081600560006101000a81548173ffffffffffffffffffffffffffffffffffffffff021916908373ffffffffffffffffffffffffffffffffffffffff1602179055508173ffffffffffffffffffffffffffffffffffffffff168173ffffffffffffffffffffffffffffffffffffffff167f8be0079c531659141344cd1fd0a4f28419497f9722a3daafe3b4186f6b6457e060405160405180910390a35050565b505050565b505050565b6000612b6c612b6784613950565b61391f565b90508083825260208201905082856020860282011115612b8b57600080fd5b60005b85811015612bbb5781612ba18882612c58565b845260208401935060208301925050600181019050612b8e565b5050509392505050565b600081359050612bd481613cf2565b92915050565b600081519050612be981613cf2565b92915050565b600082601f830112612c0057600080fd5b8151612c10848260208601612b59565b91505092915050565b600081519050612c2881613d09565b92915050565b600081519050612c3d81613d20565b92915050565b600081359050612c5281613d37565b92915050565b600081519050612c6781613d37565b92915050565b600081519050612c7c81613d4e565b92915050565b600060208284031215612c9457600080fd5b6000612ca284828501612bc5565b91505092915050565b600060208284031215612cbd57600080fd5b6000612ccb84828501612bda565b91505092915050565b60008060408385031215612ce757600080fd5b6000612cf585828601612bc5565b9250506020612d0685828601612bc5565b9150509250929050565b600080600060608486031215612d2557600080fd5b6000612d3386828701612bc5565b9350506020612d4486828701612bc5565b9250506040612d5586828701612c43565b9150509250925092565b60008060408385031215612d7257600080fd5b6000612d8085828601612bc5565b9250506020612d9185828601612c43565b9150509250929050565b600060208284031215612dad57600080fd5b600082015167ffffffffffffffff811115612dc757600080fd5b612dd384828501612bef565b91505092915050565b600060208284031215612dee57600080fd5b6000612dfc84828501612c19565b91505092915050565b600080600060608486031215612e1a57600080fd5b6000612e2886828701612c2e565b9350506020612e3986828701612c2e565b9250506040612e4a86828701612c6d565b9150509250925092565b600060208284031215612e6657600080fd5b6000612e7484828501612c43565b91505092915050565b600060208284031215612e8f57600080fd5b6000612e9d84828501612c58565b91505092915050565b6000612eb28383612ebe565b60208301905092915050565b612ec781613ae6565b82525050565b612ed681613ae6565b82525050565b6000612ee78261398c565b612ef181856139af565b9350612efc8361397c565b8060005b83811015612f2d578151612f148882612ea6565b9750612f1f836139a2565b925050600181019050612f00565b5085935050505092915050565b612f4381613af8565b82525050565b612f5281613b65565b82525050565b6000612f6382613997565b612f6d81856139c0565b9350612f7d818560208601613b77565b612f8681613ce1565b840191505092915050565b6000612f9e6023836139c0565b91507f45524332303a207472616e7366657220746f20746865207a65726f206164647260008301527f65737300000000000000000000000000000000000000000000000000000000006020830152604082019050919050565b60006130046022836139c0565b91507f45524332303a206275726e20616d6f756e7420657863656564732062616c616e60008301527f63650000000000000000000000000000000000000000000000000000000000006020830152604082019050919050565b600061306a6022836139c0565b91507f45524332303a20617070726f766520746f20746865207a65726f20616464726560008301527f73730000000000000000000000000000000000000000000000000000000000006020830152604082019050919050565b60006130d06026836139c0565b91507f45524332303a207472616e7366657220616d6f756e742065786365656473206260008301527f616c616e636500000000000000000000000000000000000000000000000000006020830152604082019050919050565b60006131366018836139c0565b91507f4d75737420776974686472617720736f6d657468696e672100000000000000006000830152602082019050919050565b60006131766010836139c0565b91507f4d7574696e79206661696c65642e2e2e000000000000000000000000000000006000830152602082019050919050565b60006131b66018836139c0565b91507f6d73672e73656e646572204e4f542074782e6f726967696e00000000000000006000830152602082019050919050565b60006131f66028836139c0565b91507f45524332303a207472616e7366657220616d6f756e742065786365656473206160008301527f6c6c6f77616e63650000000000000000000000000000000000000000000000006020830152604082019050919050565b600061325c6020836139c0565b91507f4f776e61626c653a2063616c6c6572206973206e6f7420746865206f776e65726000830152602082019050919050565b600061329c6023836139c0565b91507f4f6820776861743f204e6f20746f6b656e733f20476574206f7574746120686560008301527f72652100000000000000000000000000000000000000000000000000000000006020830152604082019050919050565b60006133026021836139c0565b91507f45524332303a206275726e2066726f6d20746865207a65726f2061646472657360008301527f73000000000000000000000000000000000000000000000000000000000000006020830152604082019050919050565b60006133686025836139c0565b91507f45524332303a207472616e736665722066726f6d20746865207a65726f20616460008301527f64726573730000000000000000000000000000000000000000000000000000006020830152604082019050919050565b60006133ce6024836139c0565b91507f45524332303a20617070726f76652066726f6d20746865207a65726f2061646460008301527f72657373000000000000000000000000000000000000000000000000000000006020830152604082019050919050565b60006134346043836139c0565b91507f546f6b656e2070726f7669646564206973206e6f742070617274206f6620746860008301527f652050617274792e2057686f20646f20796f75206576656e206b6e6f7720686560208301527f72653f00000000000000000000000000000000000000000000000000000000006040830152606082019050919050565b60006134c06025836139c0565b91507f45524332303a2064656372656173656420616c6c6f77616e63652062656c6f7760008301527f207a65726f0000000000000000000000000000000000000000000000000000006020830152604082019050919050565b6000613526601f836139c0565b91507f45524332303a206d696e7420746f20746865207a65726f2061646472657373006000830152602082019050919050565b61356281613b3e565b82525050565b61357181613b58565b82525050565b600060208201905061358c6000830184612ecd565b92915050565b60006040820190506135a76000830185612ecd565b6135b46020830184612ecd565b9392505050565b60006060820190506135d06000830186612ecd565b6135dd6020830185612ecd565b6135ea6040830184613559565b949350505050565b60006040820190506136076000830185612ecd565b6136146020830184613559565b9392505050565b60006020820190506136306000830184612f3a565b92915050565b600060208201905081810360008301526136508184612f58565b905092915050565b6000602082019050818103600083015261367181612f91565b9050919050565b6000602082019050818103600083015261369181612ff7565b9050919050565b600060208201905081810360008301526136b18161305d565b9050919050565b600060208201905081810360008301526136d1816130c3565b9050919050565b600060208201905081810360008301526136f181613129565b9050919050565b6000602082019050818103600083015261371181613169565b9050919050565b60006020820190508181036000830152613731816131a9565b9050919050565b60006020820190508181036000830152613751816131e9565b9050919050565b600060208201905081810360008301526137718161324f565b9050919050565b600060208201905081810360008301526137918161328f565b9050919050565b600060208201905081810360008301526137b1816132f5565b9050919050565b600060208201905081810360008301526137d18161335b565b9050919050565b600060208201905081810360008301526137f1816133c1565b9050919050565b6000602082019050818103600083015261381181613427565b9050919050565b60006020820190508181036000830152613831816134b3565b9050919050565b6000602082019050818103600083015261385181613519565b9050919050565b600060208201905061386d6000830184613559565b92915050565b600060a0820190506138886000830188613559565b6138956020830187612f49565b81810360408301526138a78186612edc565b90506138b66060830185612ecd565b6138c36080830184613559565b9695505050505050565b60006060820190506138e26000830186613559565b6138ef6020830185613559565b6138fc6040830184613559565b949350505050565b60006020820190506139196000830184613568565b92915050565b6000604051905081810181811067ffffffffffffffff8211171561394657613945613cb2565b5b8060405250919050565b600067ffffffffffffffff82111561396b5761396a613cb2565b5b602082029050602081019050919050565b6000819050602082019050919050565b600081519050919050565b600081519050919050565b6000602082019050919050565b600082825260208201905092915050565b600082825260208201905092915050565b60006139dc82613b3e565b91506139e783613b3e565b9250827fffffffffffffffffffffffffffffffffffffffffffffffffffffffffffffffff03821115613a1c57613a1b613c25565b5b828201905092915050565b6000613a3282613b3e565b9150613a3d83613b3e565b925082613a4d57613a4c613c54565b5b828204905092915050565b6000613a6382613b3e565b9150613a6e83613b3e565b9250817fffffffffffffffffffffffffffffffffffffffffffffffffffffffffffffffff0483118215151615613aa757613aa6613c25565b5b828202905092915050565b6000613abd82613b3e565b9150613ac883613b3e565b925082821015613adb57613ada613c25565b5b828203905092915050565b6000613af182613b1e565b9050919050565b60008115159050919050565b60006dffffffffffffffffffffffffffff82169050919050565b600073ffffffffffffffffffffffffffffffffffffffff82169050919050565b6000819050919050565b600063ffffffff82169050919050565b600060ff82169050919050565b6000613b7082613b3e565b9050919050565b60005b83811015613b95578082015181840152602081019050613b7a565b83811115613ba4576000848401525b50505050565b60006002820490506001821680613bc257607f821691505b60208210811415613bd657613bd5613c83565b5b50919050565b6000613be782613b3e565b91507fffffffffffffffffffffffffffffffffffffffffffffffffffffffffffffffff821415613c1a57613c19613c25565b5b600182019050919050565b7f4e487b7100000000000000000000000000000000000000000000000000000000600052601160045260246000fd5b7f4e487b7100000000000000000000000000000000000000000000000000000000600052601260045260246000fd5b7f4e487b7100000000000000000000000000000000000000000000000000000000600052602260045260246000fd5b7f4e487b7100000000000000000000000000000000000000000000000000000000600052604160045260246000fd5b6000601f19601f8301169050919050565b613cfb81613ae6565b8114613d0657600080fd5b50565b613d1281613af8565b8114613d1d57600080fd5b50565b613d2981613b04565b8114613d3457600080fd5b50565b613d4081613b3e565b8114613d4b57600080fd5b50565b613d5781613b48565b8114613d6257600080fd5b5056fea26469706673582212207f2103b8e4a75a0c657af0b18b330e1562b2825a9ae6fb18615cd13a64bca93764736f6c63430008000033a264697066735822122049f796eceda3ed9e049eea6577e40237130349d7b15fe56c08d764bf35abdc8564736f6c63430008000033",
  "immutableReferences": {
    "4908": [
      {
        "length": 32,
        "start": 2383
      },
      {
        "length": 32,
        "start": 2934
      }
    ]
  },
  "source": "// SPDX-License-Identifier: MIT LISCENSE\r\npragma solidity ^0.8.0;\r\n\r\nimport \"@openzeppelin/contracts/token/ERC20/ERC20.sol\";\r\nimport \"@openzeppelin/contracts/access/Ownable.sol\";\r\nimport \"@openzeppelin/contracts/utils/Strings.sol\";\r\n\r\nimport \"@uniswap/v2-core/contracts/interfaces/IUniswapV2Factory.sol\";\r\nimport \"@uniswap/v2-core/contracts/interfaces/IUniswapV2Pair.sol\";\r\nimport \"@uniswap/v2-periphery/contracts/interfaces/IUniswapV2Router02.sol\";\r\n\r\nabstract contract IPartyPort{\r\n    function transferCaptain(address newCaptain) external virtual returns (bool);\r\n}\r\n\r\n/**\r\n * @dev Party contract that is created from PirateParty\r\n * \r\n * deposit into Party for respective Party Token\r\n */\r\ncontract Party is ERC20, Ownable{\r\n    address public port;                            // contract that instantiated party\r\n    mapping(address => bool) public inParty;        // mapping of token is in the party\r\n    mapping(address => uint) public allocations;    // recorded balance of tokens in the portfolio\r\n    address[] public tokens;                        // list of unique tokens\r\n    address public immutable factory;               // pair factory initialized from router for referencing\r\n    address public immutable router;                // DEX router to utilize for swap and pricing\r\n\r\n    modifier isOrigin(){\r\n        require(msg.sender == tx.origin, \"msg.sender NOT tx.origin\");\r\n        _;\r\n    }\r\n\r\n    constructor(address _captain, string memory _name, string memory _symbol, address _router, address[] memory _tokens) ERC20(_name, _symbol){\r\n        port = msg.sender;\r\n        router = _router;\r\n        factory = IUniswapV2Router02(_router).factory();\r\n\r\n        // initialize the list of tokens and respective balance\r\n        uint length = tokens.length;\r\n        for(uint i; i < length; ++i){\r\n            if(!inParty[_tokens[i]]){\r\n                tokens.push(_tokens[i]);\r\n                inParty[_tokens[i]] = true;\r\n            }\r\n        }\r\n\r\n        // owner should not be factory\r\n        _transferOwnership(_captain);\r\n    }\r\n\r\n    /**\r\n     * @dev deposit and distribute tokens to a party\r\n     *\r\n     * @param token - send assets to portfolio to distribute accross\r\n     * @param amount - amount of token to deposit\r\n     */\r\n    function deposit(address token, uint amount) external isOrigin {\r\n        require(inParty[token], \"Token provided is not part of the Party. Who do you even know here?\");\r\n        require(amount > 0, \"Oh what? No tokens? Get outta here!\");\r\n        // make deposit\r\n        uint256 prevBal = ERC20(token).balanceOf(address(this));\r\n        ERC20(token).transferFrom(msg.sender, address(this), amount);\r\n        uint256 deposited = ERC20(token).balanceOf(address(this)) - prevBal;\r\n        \r\n        //distribute funds accross party\r\n        uint distribute = deposited / tokens.length;    // deposited token will have any remainder dust\r\n        uint length = tokens.length;\r\n        for(uint i; i < length; ++i){\r\n            if(tokens[i]==token) continue;  //don't transfer to same token\r\n            _edit(token, tokens[i], distribute);\r\n        }\r\n\r\n        uint shares = _calcShares(token, amount);\r\n        // mit with Party reward tokens\r\n        _mint(msg.sender, shares);\r\n    }\r\n\r\n    /**\r\n     * @dev calculate number of shares in pool for given amounts\r\n     * \r\n     * @param token - token to calculate shares with\r\n     * @param amount - amount of token to get quoted\r\n     *\r\n     */\r\n    function _calcShares(address token, uint amount) internal view returns (uint shares) {\r\n        address weth = IUniswapV2Router02(router).WETH();   // base calculation on eth amount\r\n        uint total;\r\n        uint val;\r\n        uint amtWeth;\r\n\r\n        // calculate total value of portfolio in WETH\r\n        uint length = tokens.length;\r\n        for(uint i; i < length; ++i){\r\n            address pair = IUniswapV2Factory(factory).getPair(tokens[i], weth);\r\n            (uint res0, uint res1,) = IUniswapV2Pair(pair).getReserves();  \r\n            if(IUniswapV2Pair(pair).token0() == weth){      // assume res1 will be weth\r\n                uint temp = res0;\r\n                res0 = res1;\r\n                res1 = temp;\r\n            }\r\n            uint balance = IERC20(tokens[i]).balanceOf(address(this));\r\n            val = IUniswapV2Router02(router).getAmountOut(balance, res0, res1);  // calculate exchange for token in weth\r\n\r\n            if (tokens[i] == token){\r\n                amtWeth = IUniswapV2Router02(router).getAmountOut(amount, res0, res1);  // value of deposit in weth\r\n            }\r\n\r\n            total += val;  // get total value of party in WETH\r\n        }\r\n        \r\n        // return portion of asset WETH value provided\r\n        shares = amtWeth / total;\r\n    }\r\n\r\n    /**\r\n     * @dev withraws value from party\r\n     *\r\n     * @param amount - number of tokens to redeem for share\r\n     */\r\n    function withdraw(uint amount) external isOrigin {\r\n        require(amount > 0, \"Must withdraw something!\");\r\n        //transfer stake owed\r\n        uint length = tokens.length;\r\n        for(uint i; i < length; ++i){\r\n            ERC20(tokens[i]).transfer(msg.sender, ERC20(tokens[i]).balanceOf(address(this)) * amount / totalSupply() * allocations[tokens[i]]);\r\n        }\r\n        //remove liquidity\r\n        _burn(msg.sender, amount);\r\n    }\r\n\r\n    /**\r\n     * @dev Owner to swap amount of held token for another\r\n     *\r\n     * @param from - token swapping\r\n     * @param to - token recieving\r\n     * @param tokenAmount - number of `from` tokens to swap\r\n     */\r\n    function edit(address from, address to, uint256 tokenAmount) external onlyOwner {\r\n        _edit(from, to, tokenAmount);\r\n    }\r\n\r\n    /**\r\n     * @dev interal swap amount of held token for another\r\n     *\r\n     * @param from - token swapping\r\n     * @param to - token recieving\r\n     * @param tokenAmount - number of `from` tokens to swap\r\n     */\r\n    function _edit(address from, address to, uint tokenAmount) internal {\r\n        address[] memory path = new address[](3);\r\n        path[0] = from;\r\n        path[1] = IUniswapV2Router02(router).WETH();\r\n        path[2] = to;\r\n\r\n        ERC20(from).approve(router, tokenAmount);\r\n\r\n        // make the swap\r\n        IUniswapV2Router02(router).swapExactTokensForTokens(\r\n            tokenAmount,\r\n            0, // accept any amount of tokens\r\n            path,\r\n            address(this),\r\n            block.timestamp\r\n        );\r\n\r\n        //record balance after swap\r\n        allocations[from] = ERC20(from).balanceOf(address(this));\r\n        allocations[to] = ERC20(to).balanceOf(address(this));\r\n    }\r\n\r\n    /**\r\n     * @dev match recorded token allocation balance with actual network balance\r\n     */\r\n    function refresh() external {\r\n        uint length = tokens.length;\r\n        for(uint i; i < length; ++i){\r\n            allocations[tokens[i]] = ERC20(tokens[i]).balanceOf(address(this));\r\n        }\r\n    }\r\n\r\n    /**\r\n     * @dev override transferOwnership of Ownable library to sync with main Pirate Party contract\r\n     *\r\n     * @param newOwner - new address to gain ownership, can be address(0)\r\n     */\r\n    function transferOwnership(address newOwner) public override onlyOwner isOrigin{\r\n        require(IPartyPort(port).transferCaptain(newOwner), \"Mutiny failed...\");\r\n        _transferOwnership(newOwner);\r\n    }\r\n}\r\n\r\n/**\r\n * @dev PartyPort contract\r\n * factory to create Parties with specified params\r\n */\r\ncontract PartyPort is IPartyPort{\r\n    mapping(address => address[]) public getPartiesByOwner;     // query owner address for list of controlled party addresses\r\n    mapping(address => address) public getOwnerByParty;         // query party address for owner address\r\n    address[] public allParties;                                // address list of all created parties\r\n    address public immutable router;                            // DEX router to utilize for swap and pricing\r\n                                                                // BSC:         pancakeswap 0x10ED43C718714eb63d5aA57B78B54704E256024E\r\n                                                                // BSC testnet: pancakeswap 0xD99D1c33F9fC3444f8101754aBC46c52416550D1\r\n                                                                // ETH:         uniswap     0x7a250d5630B4cF539739dF2C5dAcb4c659F2488D  (includes Ropsten, Rinkeby, Grli, and Kovan testnets)\r\n    \r\n    event PartyStarted(uint, address);\r\n\r\n    constructor(address _router){\r\n        router = _router;\r\n    }\r\n\r\n    function totalParties() external view returns(uint){\r\n        return allParties.length;\r\n    }\r\n\r\n    function ownedParties(address owner) public view returns(uint){\r\n        return getPartiesByOwner[owner].length;\r\n    }\r\n\r\n    // wtf is memory    \r\n    function getAllParties() external view returns(address[] memory){\r\n        return allParties;\r\n    }\r\n\r\n\r\n    /**\r\n     * @dev instantiate a new Party\r\n     *\r\n     * @param tokens - addresses of tokens to include in portfolio\r\n     */\r\n    function startParty(address[] calldata tokens) external {\r\n        require(tokens.length > 1, \"Need more than one token in part!\");\r\n\r\n        // Instantiate new Party w/ params\r\n        Party newParty = new Party(tx.origin,\r\n                                    string(abi.encodePacked(\"Pirate Party Token #\", Strings.toString(allParties.length))),\r\n                                    string(abi.encodePacked(\"PPT\", Strings.toString(allParties.length))),\r\n                                    router,\r\n                                    tokens);\r\n\r\n        // Save Party information\r\n        getPartiesByOwner[msg.sender].push(address(newParty));\r\n        getOwnerByParty[address(newParty)] = msg.sender;\r\n        allParties.push(address(newParty));\r\n\r\n        emit PartyStarted(allParties.length, msg.sender);\r\n    }\r\n\r\n    function transferCaptain(address newCaptain) external override returns(bool){\r\n        address captain = getOwnerByParty[msg.sender];              // actual party owner\r\n        address[] memory parties = getPartiesByOwner[tx.origin];    // check tx.origin and owned parties\r\n        uint length = parties.length;\r\n        for(uint i; i < length; ++i){\r\n            if(msg.sender == parties[i]){\r\n                // update storage of previous captain \r\n                getPartiesByOwner[captain][i] = parties[length - 1];\r\n                getPartiesByOwner[captain].pop();\r\n\r\n                // assign new party information\r\n                getPartiesByOwner[newCaptain].push(msg.sender);\r\n                getOwnerByParty[msg.sender] = newCaptain;\r\n\r\n                return true;    // successful a transfer of ownership\r\n            }\r\n        }\r\n        return false;   // tx.origin was not owner of party\r\n    }\r\n}\r\n",
  "sourcePath": "C:\\Users\\lefebvrem\\Desktop\\Folder\\School\\Spring 2022\\Software Engineering - COMP4960\\piratepartyv0\\contracts\\PirateParty.sol",
  "compiler": {
    "name": "solc",
    "version": "0.8.0+commit.c7dfd78e.Emscripten.clang"
  },
  "schemaVersion": "3.4.6",
  "updatedAt": "2022-04-13T19:04:48.199Z",
  "devdoc": {
    "details": "PartyPort contract factory to create Parties with specified params",
    "kind": "dev",
    "methods": {
      "startParty(address[])": {
        "details": "instantiate a new Party",
        "params": {
          "tokens": "- addresses of tokens to include in portfolio"
        }
      }
    },
    "version": 1
  },
  "userdoc": {
    "kind": "user",
    "methods": {},
    "version": 1
  }
}